{
  "_format": "hh-sol-artifact-1",
  "contractName": "DrinkNFT",
  "sourceName": "contracts/DrinkNFT.sol",
  "abi": [
    {
      "inputs": [
        {
          "internalType": "string",
          "name": "_name",
          "type": "string"
        },
        {
          "internalType": "string",
          "name": "_symbol",
          "type": "string"
        },
        {
          "internalType": "uint256",
          "name": "_price",
          "type": "uint256"
        },
        {
          "internalType": "uint256",
          "name": "_limit",
          "type": "uint256"
        },
        {
          "internalType": "string",
          "name": "_imageURI",
          "type": "string"
        },
        {
          "internalType": "uint256",
          "name": "_bonusThreshold",
          "type": "uint256"
        }
      ],
      "stateMutability": "nonpayable",
      "type": "constructor"
    },
    {
      "anonymous": false,
      "inputs": [
        {
          "indexed": true,
          "internalType": "address",
          "name": "owner",
          "type": "address"
        },
        {
          "indexed": true,
          "internalType": "address",
          "name": "approved",
          "type": "address"
        },
        {
          "indexed": true,
          "internalType": "uint256",
          "name": "tokenId",
          "type": "uint256"
        }
      ],
      "name": "Approval",
      "type": "event"
    },
    {
      "anonymous": false,
      "inputs": [
        {
          "indexed": true,
          "internalType": "address",
          "name": "owner",
          "type": "address"
        },
        {
          "indexed": true,
          "internalType": "address",
          "name": "operator",
          "type": "address"
        },
        {
          "indexed": false,
          "internalType": "bool",
          "name": "approved",
          "type": "bool"
        }
      ],
      "name": "ApprovalForAll",
      "type": "event"
    },
    {
      "anonymous": false,
      "inputs": [
        {
          "indexed": true,
          "internalType": "address",
          "name": "_from",
          "type": "address"
        },
        {
          "indexed": true,
          "internalType": "uint256",
          "name": "_id",
          "type": "uint256"
        }
      ],
      "name": "Burn",
      "type": "event"
    },
    {
      "anonymous": false,
      "inputs": [
        {
          "indexed": true,
          "internalType": "address",
          "name": "previousOwner",
          "type": "address"
        },
        {
          "indexed": true,
          "internalType": "address",
          "name": "newOwner",
          "type": "address"
        }
      ],
      "name": "OwnershipTransferred",
      "type": "event"
    },
    {
      "anonymous": false,
      "inputs": [
        {
          "indexed": true,
          "internalType": "address",
          "name": "from",
          "type": "address"
        },
        {
          "indexed": true,
          "internalType": "address",
          "name": "to",
          "type": "address"
        },
        {
          "indexed": true,
          "internalType": "uint256",
          "name": "tokenId",
          "type": "uint256"
        }
      ],
      "name": "Transfer",
      "type": "event"
    },
    {
      "inputs": [
        {
          "internalType": "address",
          "name": "to",
          "type": "address"
        },
        {
          "internalType": "uint256",
          "name": "tokenId",
          "type": "uint256"
        }
      ],
      "name": "approve",
      "outputs": [],
      "stateMutability": "nonpayable",
      "type": "function"
    },
    {
      "inputs": [
        {
          "internalType": "address",
          "name": "owner",
          "type": "address"
        }
      ],
      "name": "balanceOf",
      "outputs": [
        {
          "internalType": "uint256",
          "name": "",
          "type": "uint256"
        }
      ],
      "stateMutability": "view",
      "type": "function"
    },
    {
      "inputs": [],
      "name": "bonusNum",
      "outputs": [
        {
          "internalType": "uint256",
          "name": "",
          "type": "uint256"
        }
      ],
      "stateMutability": "view",
      "type": "function"
    },
    {
      "inputs": [],
      "name": "bonusThreshold",
      "outputs": [
        {
          "internalType": "uint256",
          "name": "",
          "type": "uint256"
        }
      ],
      "stateMutability": "view",
      "type": "function"
    },
    {
      "inputs": [
        {
          "internalType": "uint256",
          "name": "tokenQuantity",
          "type": "uint256"
        },
        {
          "internalType": "address",
          "name": "target",
          "type": "address"
        }
      ],
      "name": "delegateMintNFT",
      "outputs": [],
      "stateMutability": "payable",
      "type": "function"
    },
    {
      "inputs": [
        {
          "internalType": "uint256",
          "name": "tokenId",
          "type": "uint256"
        },
        {
          "internalType": "bytes",
          "name": "signature",
          "type": "bytes"
        }
      ],
      "name": "destroyNFT",
      "outputs": [],
      "stateMutability": "nonpayable",
      "type": "function"
    },
    {
      "inputs": [
        {
          "internalType": "uint256",
          "name": "tokenId",
          "type": "uint256"
        }
      ],
      "name": "getApproved",
      "outputs": [
        {
          "internalType": "address",
          "name": "",
          "type": "address"
        }
      ],
      "stateMutability": "view",
      "type": "function"
    },
    {
      "inputs": [],
      "name": "getImageURI",
      "outputs": [
        {
          "internalType": "string",
          "name": "",
          "type": "string"
        }
      ],
      "stateMutability": "view",
      "type": "function"
    },
    {
      "inputs": [],
      "name": "getRemainNFTNum",
      "outputs": [
        {
          "internalType": "uint256",
          "name": "",
          "type": "uint256"
        }
      ],
      "stateMutability": "view",
      "type": "function"
    },
    {
      "inputs": [
        {
          "internalType": "address",
          "name": "userAddress",
          "type": "address"
        }
      ],
      "name": "getUserBonus",
      "outputs": [
        {
          "internalType": "uint256",
          "name": "",
          "type": "uint256"
        }
      ],
      "stateMutability": "view",
      "type": "function"
    },
    {
      "inputs": [],
      "name": "imageURI",
      "outputs": [
        {
          "internalType": "string",
          "name": "",
          "type": "string"
        }
      ],
      "stateMutability": "view",
      "type": "function"
    },
    {
      "inputs": [
        {
          "internalType": "address",
          "name": "owner",
          "type": "address"
        },
        {
          "internalType": "address",
          "name": "operator",
          "type": "address"
        }
      ],
      "name": "isApprovedForAll",
      "outputs": [
        {
          "internalType": "bool",
          "name": "",
          "type": "bool"
        }
      ],
      "stateMutability": "view",
      "type": "function"
    },
    {
      "inputs": [],
      "name": "mintLimit",
      "outputs": [
        {
          "internalType": "uint256",
          "name": "",
          "type": "uint256"
        }
      ],
      "stateMutability": "view",
      "type": "function"
    },
    {
      "inputs": [
        {
          "internalType": "uint256",
          "name": "tokenQuantity",
          "type": "uint256"
        }
      ],
      "name": "mintNFT",
      "outputs": [],
      "stateMutability": "payable",
      "type": "function"
    },
    {
      "inputs": [],
      "name": "mintPrice",
      "outputs": [
        {
          "internalType": "uint256",
          "name": "",
          "type": "uint256"
        }
      ],
      "stateMutability": "view",
      "type": "function"
    },
    {
      "inputs": [],
      "name": "name",
      "outputs": [
        {
          "internalType": "string",
          "name": "",
          "type": "string"
        }
      ],
      "stateMutability": "view",
      "type": "function"
    },
    {
      "inputs": [],
      "name": "owner",
      "outputs": [
        {
          "internalType": "address",
          "name": "",
          "type": "address"
        }
      ],
      "stateMutability": "view",
      "type": "function"
    },
    {
      "inputs": [
        {
          "internalType": "uint256",
          "name": "tokenId",
          "type": "uint256"
        }
      ],
      "name": "ownerOf",
      "outputs": [
        {
          "internalType": "address",
          "name": "",
          "type": "address"
        }
      ],
      "stateMutability": "view",
      "type": "function"
    },
    {
      "inputs": [
        {
          "internalType": "bytes32",
          "name": "signedMessage",
          "type": "bytes32"
        },
        {
          "internalType": "bytes",
          "name": "signature",
          "type": "bytes"
        }
      ],
      "name": "recoverSigner",
      "outputs": [
        {
          "internalType": "address",
          "name": "",
          "type": "address"
        }
      ],
      "stateMutability": "pure",
      "type": "function"
    },
    {
      "inputs": [],
      "name": "renounceOwnership",
      "outputs": [],
      "stateMutability": "nonpayable",
      "type": "function"
    },
    {
      "inputs": [
        {
          "internalType": "address",
          "name": "from",
          "type": "address"
        },
        {
          "internalType": "address",
          "name": "to",
          "type": "address"
        },
        {
          "internalType": "uint256",
          "name": "tokenId",
          "type": "uint256"
        }
      ],
      "name": "safeTransferFrom",
      "outputs": [],
      "stateMutability": "nonpayable",
      "type": "function"
    },
    {
      "inputs": [
        {
          "internalType": "address",
          "name": "from",
          "type": "address"
        },
        {
          "internalType": "address",
          "name": "to",
          "type": "address"
        },
        {
          "internalType": "uint256",
          "name": "tokenId",
          "type": "uint256"
        },
        {
          "internalType": "bytes",
          "name": "_data",
          "type": "bytes"
        }
      ],
      "name": "safeTransferFrom",
      "outputs": [],
      "stateMutability": "nonpayable",
      "type": "function"
    },
    {
      "inputs": [
        {
          "internalType": "address",
          "name": "operator",
          "type": "address"
        },
        {
          "internalType": "bool",
          "name": "approved",
          "type": "bool"
        }
      ],
      "name": "setApprovalForAll",
      "outputs": [],
      "stateMutability": "nonpayable",
      "type": "function"
    },
    {
      "inputs": [
        {
          "internalType": "uint256",
          "name": "_bonusThreshold",
          "type": "uint256"
        },
        {
          "internalType": "uint256",
          "name": "_bonusNum",
          "type": "uint256"
        }
      ],
      "name": "setBonus",
      "outputs": [],
      "stateMutability": "nonpayable",
      "type": "function"
    },
    {
      "inputs": [
        {
          "internalType": "string",
          "name": "_imageURI",
          "type": "string"
        }
      ],
      "name": "setImageURI",
      "outputs": [],
      "stateMutability": "nonpayable",
      "type": "function"
    },
    {
      "inputs": [
        {
          "internalType": "uint256",
          "name": "_mintLimit",
          "type": "uint256"
        }
      ],
      "name": "setMintLimit",
      "outputs": [],
      "stateMutability": "nonpayable",
      "type": "function"
    },
    {
      "inputs": [
        {
          "internalType": "uint256",
          "name": "_mintPrice",
          "type": "uint256"
        }
      ],
      "name": "setMintPrice",
      "outputs": [],
      "stateMutability": "nonpayable",
      "type": "function"
    },
    {
      "inputs": [
        {
          "internalType": "bytes4",
          "name": "interfaceId",
          "type": "bytes4"
        }
      ],
      "name": "supportsInterface",
      "outputs": [
        {
          "internalType": "bool",
          "name": "",
          "type": "bool"
        }
      ],
      "stateMutability": "view",
      "type": "function"
    },
    {
      "inputs": [],
      "name": "symbol",
      "outputs": [
        {
          "internalType": "string",
          "name": "",
          "type": "string"
        }
      ],
      "stateMutability": "view",
      "type": "function"
    },
    {
      "inputs": [
        {
          "internalType": "uint256",
          "name": "index",
          "type": "uint256"
        }
      ],
      "name": "tokenByIndex",
      "outputs": [
        {
          "internalType": "uint256",
          "name": "",
          "type": "uint256"
        }
      ],
      "stateMutability": "view",
      "type": "function"
    },
    {
      "inputs": [
        {
          "internalType": "address",
          "name": "owner",
          "type": "address"
        },
        {
          "internalType": "uint256",
          "name": "index",
          "type": "uint256"
        }
      ],
      "name": "tokenOfOwnerByIndex",
      "outputs": [
        {
          "internalType": "uint256",
          "name": "",
          "type": "uint256"
        }
      ],
      "stateMutability": "view",
      "type": "function"
    },
    {
      "inputs": [
        {
          "internalType": "uint256",
          "name": "tokenId",
          "type": "uint256"
        }
      ],
      "name": "tokenURI",
      "outputs": [
        {
          "internalType": "string",
          "name": "",
          "type": "string"
        }
      ],
      "stateMutability": "view",
      "type": "function"
    },
    {
      "inputs": [],
      "name": "totalSupply",
      "outputs": [
        {
          "internalType": "uint256",
          "name": "",
          "type": "uint256"
        }
      ],
      "stateMutability": "view",
      "type": "function"
    },
    {
      "inputs": [
        {
          "internalType": "address",
          "name": "from",
          "type": "address"
        },
        {
          "internalType": "address",
          "name": "to",
          "type": "address"
        },
        {
          "internalType": "uint256",
          "name": "tokenId",
          "type": "uint256"
        }
      ],
      "name": "transferFrom",
      "outputs": [],
      "stateMutability": "nonpayable",
      "type": "function"
    },
    {
      "inputs": [
        {
          "internalType": "address",
          "name": "newOwner",
          "type": "address"
        }
      ],
      "name": "transferOwnership",
      "outputs": [],
      "stateMutability": "nonpayable",
      "type": "function"
    },
    {
      "inputs": [
        {
          "internalType": "string",
          "name": "message",
          "type": "string"
        },
        {
          "internalType": "bytes",
          "name": "signature",
          "type": "bytes"
        },
        {
          "internalType": "uint256",
          "name": "message_length",
          "type": "uint256"
        }
      ],
      "name": "verifySignature",
      "outputs": [
        {
          "internalType": "address",
          "name": "",
          "type": "address"
        }
      ],
      "stateMutability": "pure",
      "type": "function"
    }
  ],
  "bytecode": "0x6080604052666a94d74f430000600b556000600d556001600e553480156200002657600080fd5b506040516200533f3803806200533f83398181016040528101906200004c9190620002e3565b8585816000908051906020019062000066929190620001aa565b5080600190805190602001906200007f929190620001aa565b505050620000a262000096620000dc60201b60201c565b620000e460201b60201c565b83600b8190555082600c8190555081600f9080519060200190620000c8929190620001aa565b5080600d8190555050505050505062000558565b600033905090565b6000600a60009054906101000a900473ffffffffffffffffffffffffffffffffffffffff16905081600a60006101000a81548173ffffffffffffffffffffffffffffffffffffffff021916908373ffffffffffffffffffffffffffffffffffffffff1602179055508173ffffffffffffffffffffffffffffffffffffffff168173ffffffffffffffffffffffffffffffffffffffff167f8be0079c531659141344cd1fd0a4f28419497f9722a3daafe3b4186f6b6457e060405160405180910390a35050565b828054620001b89062000463565b90600052602060002090601f016020900481019282620001dc576000855562000228565b82601f10620001f757805160ff191683800117855562000228565b8280016001018555821562000228579182015b82811115620002275782518255916020019190600101906200020a565b5b5090506200023791906200023b565b5090565b5b80821115620002565760008160009055506001016200023c565b5090565b6000620002716200026b84620003ed565b620003c4565b9050828152602081018484840111156200028a57600080fd5b620002978482856200042d565b509392505050565b600082601f830112620002b157600080fd5b8151620002c38482602086016200025a565b91505092915050565b600081519050620002dd816200053e565b92915050565b60008060008060008060c08789031215620002fd57600080fd5b600087015167ffffffffffffffff8111156200031857600080fd5b6200032689828a016200029f565b965050602087015167ffffffffffffffff8111156200034457600080fd5b6200035289828a016200029f565b95505060406200036589828a01620002cc565b94505060606200037889828a01620002cc565b935050608087015167ffffffffffffffff8111156200039657600080fd5b620003a489828a016200029f565b92505060a0620003b789828a01620002cc565b9150509295509295509295565b6000620003d0620003e3565b9050620003de828262000499565b919050565b6000604051905090565b600067ffffffffffffffff8211156200040b576200040a620004fe565b5b62000416826200052d565b9050602081019050919050565b6000819050919050565b60005b838110156200044d57808201518184015260208101905062000430565b838111156200045d576000848401525b50505050565b600060028204905060018216806200047c57607f821691505b60208210811415620004935762000492620004cf565b5b50919050565b620004a4826200052d565b810181811067ffffffffffffffff82111715620004c657620004c5620004fe565b5b80604052505050565b7f4e487b7100000000000000000000000000000000000000000000000000000000600052602260045260246000fd5b7f4e487b7100000000000000000000000000000000000000000000000000000000600052604160045260246000fd5b6000601f19601f8301169050919050565b620005498162000423565b81146200055557600080fd5b50565b614dd780620005686000396000f3fe60806040526004361061020f5760003560e01c8063715018a611610118578063b88d4fde116100a0578063ded7222b1161006f578063ded7222b146107a7578063e985e9c5146107d2578063f2fde38b1461080f578063f4a0a52814610838578063ff3fa15b146108615761020f565b8063b88d4fde146106eb578063bc4eaa3e14610714578063c87b56dd1461073f578063cc90da291461077c5761020f565b806395d89b41116100e757806395d89b411461060657806397aba7f914610631578063996517cf1461066e5780639e6a1d7d14610699578063a22cb465146106c25761020f565b8063715018a61461058c578063762bbf15146105a35780638da5cb5b146105bf57806392642744146105ea5761020f565b80631dcdde051161019b5780634f6ccce71161016a5780634f6ccce71461047f5780636352211e146104bc5780636817c76c146104f95780636b5207071461052457806370a082311461054f5761020f565b80631dcdde05146103c757806323b872dd146103f05780632f745c591461041957806342842e0e146104565761020f565b8063081812fc116101e2578063081812fc146102ce578063095ea7b31461030b578063135d088d14610334578063143faf461461035f57806318160ddd1461039c5761020f565b806301ffc9a714610214578063037c99b01461025157806304787ca21461027a57806306fdde03146102a3575b600080fd5b34801561022057600080fd5b5061023b600480360381019061023691906137fb565b61089e565b6040516102489190613f3a565b60405180910390f35b34801561025d57600080fd5b50610278600480360381019061027391906139c6565b610918565b005b34801561028657600080fd5b506102a1600480360381019061029c919061384d565b6109a6565b005b3480156102af57600080fd5b506102b8610a3c565b6040516102c59190613f9a565b60405180910390f35b3480156102da57600080fd5b506102f560048036038101906102f0919061390d565b610ace565b6040516103029190613ed3565b60405180910390f35b34801561031757600080fd5b50610332600480360381019061032d919061376b565b610b53565b005b34801561034057600080fd5b50610349610c6b565b6040516103569190613f9a565b60405180910390f35b34801561036b57600080fd5b506103866004803603810190610381919061388e565b610cf9565b6040516103939190613ed3565b60405180910390f35b3480156103a857600080fd5b506103b1610d6e565b6040516103be919061429c565b60405180910390f35b3480156103d357600080fd5b506103ee60048036038101906103e99190613972565b610d7b565b005b3480156103fc57600080fd5b5061041760048036038101906104129190613665565b610ecd565b005b34801561042557600080fd5b50610440600480360381019061043b919061376b565b610f2d565b60405161044d919061429c565b60405180910390f35b34801561046257600080fd5b5061047d60048036038101906104789190613665565b610fd2565b005b34801561048b57600080fd5b506104a660048036038101906104a1919061390d565b610ff2565b6040516104b3919061429c565b60405180910390f35b3480156104c857600080fd5b506104e360048036038101906104de919061390d565b611089565b6040516104f09190613ed3565b60405180910390f35b34801561050557600080fd5b5061050e61113b565b60405161051b919061429c565b60405180910390f35b34801561053057600080fd5b50610539611141565b604051610546919061429c565b60405180910390f35b34801561055b57600080fd5b5061057660048036038101906105719190613600565b61115f565b604051610583919061429c565b60405180910390f35b34801561059857600080fd5b506105a1611217565b005b6105bd60048036038101906105b89190613936565b61129f565b005b3480156105cb57600080fd5b506105d4611332565b6040516105e19190613ed3565b60405180910390f35b61060460048036038101906105ff919061390d565b61135c565b005b34801561061257600080fd5b5061061b611558565b6040516106289190613f9a565b60405180910390f35b34801561063d57600080fd5b50610658600480360381019061065391906137a7565b6115ea565b6040516106659190613ed3565b60405180910390f35b34801561067a57600080fd5b50610683611659565b604051610690919061429c565b60405180910390f35b3480156106a557600080fd5b506106c060048036038101906106bb919061390d565b61165f565b005b3480156106ce57600080fd5b506106e960048036038101906106e4919061372f565b6116e5565b005b3480156106f757600080fd5b50610712600480360381019061070d91906136b4565b6116fb565b005b34801561072057600080fd5b5061072961175d565b604051610736919061429c565b60405180910390f35b34801561074b57600080fd5b506107666004803603810190610761919061390d565b611763565b6040516107739190613f9a565b60405180910390f35b34801561078857600080fd5b5061079161180a565b60405161079e919061429c565b60405180910390f35b3480156107b357600080fd5b506107bc611810565b6040516107c99190613f9a565b60405180910390f35b3480156107de57600080fd5b506107f960048036038101906107f49190613629565b6118a2565b6040516108069190613f3a565b60405180910390f35b34801561081b57600080fd5b5061083660048036038101906108319190613600565b611936565b005b34801561084457600080fd5b5061085f600480360381019061085a919061390d565b611a2e565b005b34801561086d57600080fd5b5061088860048036038101906108839190613600565b611ab4565b604051610895919061429c565b60405180910390f35b60007f780e9d63000000000000000000000000000000000000000000000000000000007bffffffffffffffffffffffffffffffffffffffffffffffffffffffff1916827bffffffffffffffffffffffffffffffffffffffffffffffffffffffff19161480610911575061091082611afd565b5b9050919050565b610920611bdf565b73ffffffffffffffffffffffffffffffffffffffff1661093e611332565b73ffffffffffffffffffffffffffffffffffffffff1614610994576040517f08c379a000000000000000000000000000000000000000000000000000000000815260040161098b9061419c565b60405180910390fd5b81600d8190555080600e819055505050565b6109ae611bdf565b73ffffffffffffffffffffffffffffffffffffffff166109cc611332565b73ffffffffffffffffffffffffffffffffffffffff1614610a22576040517f08c379a0000000000000000000000000000000000000000000000000000000008152600401610a199061419c565b60405180910390fd5b80600f9080519060200190610a3892919061340f565b5050565b606060008054610a4b90614598565b80601f0160208091040260200160405190810160405280929190818152602001828054610a7790614598565b8015610ac45780601f10610a9957610100808354040283529160200191610ac4565b820191906000526020600020905b815481529060010190602001808311610aa757829003601f168201915b5050505050905090565b6000610ad982611be7565b610b18576040517f08c379a0000000000000000000000000000000000000000000000000000000008152600401610b0f9061417c565b60405180910390fd5b6004600083815260200190815260200160002060009054906101000a900473ffffffffffffffffffffffffffffffffffffffff169050919050565b6000610b5e82611089565b90508073ffffffffffffffffffffffffffffffffffffffff168373ffffffffffffffffffffffffffffffffffffffff161415610bcf576040517f08c379a0000000000000000000000000000000000000000000000000000000008152600401610bc6906141fc565b60405180910390fd5b8073ffffffffffffffffffffffffffffffffffffffff16610bee611bdf565b73ffffffffffffffffffffffffffffffffffffffff161480610c1d5750610c1c81610c17611bdf565b6118a2565b5b610c5c576040517f08c379a0000000000000000000000000000000000000000000000000000000008152600401610c53906140fc565b60405180910390fd5b610c668383611c53565b505050565b600f8054610c7890614598565b80601f0160208091040260200160405190810160405280929190818152602001828054610ca490614598565b8015610cf15780601f10610cc657610100808354040283529160200191610cf1565b820191906000526020600020905b815481529060010190602001808311610cd457829003601f168201915b505050505081565b600080610d0583611d0c565b604051602001610d159190613eb1565b604051602081830303815290604052905060008186604051602001610d3b929190613e69565b6040516020818303038152906040528051906020012090506000610d5f82876115ea565b90508093505050509392505050565b6000600880549050905090565b6060600080610da13073ffffffffffffffffffffffffffffffffffffffff166014611eb9565b9050610dac856121b3565b809350819450505060008184604051602001610dc9929190613e8d565b6040516020818303038152906040529050600083602a610de9919061438c565b90506000610df8838884610cf9565b90506000610e0589611089565b90508073ffffffffffffffffffffffffffffffffffffffff168273ffffffffffffffffffffffffffffffffffffffff1614610e75576040517f08c379a0000000000000000000000000000000000000000000000000000000008152600401610e6c906141dc565b60405180910390fd5b610e7e8961236e565b883373ffffffffffffffffffffffffffffffffffffffff167fcc16f5dbb4873280815c1ee09dbd06736cffcc184412cf7a71a0fdb75d397ca560405160405180910390a3505050505050505050565b610ede610ed8611bdf565b8261248b565b610f1d576040517f08c379a0000000000000000000000000000000000000000000000000000000008152600401610f149061421c565b60405180910390fd5b610f28838383612569565b505050565b6000610f388361115f565b8210610f79576040517f08c379a0000000000000000000000000000000000000000000000000000000008152600401610f7090613fdc565b60405180910390fd5b600660008473ffffffffffffffffffffffffffffffffffffffff1673ffffffffffffffffffffffffffffffffffffffff168152602001908152602001600020600083815260200190815260200160002054905092915050565b610fed838383604051806020016040528060008152506116fb565b505050565b6000610ffc610d6e565b821061103d576040517f08c379a00000000000000000000000000000000000000000000000000000000081526004016110349061423c565b60405180910390fd5b60088281548110611077577f4e487b7100000000000000000000000000000000000000000000000000000000600052603260045260246000fd5b90600052602060002001549050919050565b6000806002600084815260200190815260200160002060009054906101000a900473ffffffffffffffffffffffffffffffffffffffff169050600073ffffffffffffffffffffffffffffffffffffffff168173ffffffffffffffffffffffffffffffffffffffff161415611132576040517f08c379a00000000000000000000000000000000000000000000000000000000081526004016111299061413c565b60405180910390fd5b80915050919050565b600b5481565b600061114d60116127d0565b600c5461115a919061446d565b905090565b60008073ffffffffffffffffffffffffffffffffffffffff168273ffffffffffffffffffffffffffffffffffffffff1614156111d0576040517f08c379a00000000000000000000000000000000000000000000000000000000081526004016111c79061411c565b60405180910390fd5b600360008373ffffffffffffffffffffffffffffffffffffffff1673ffffffffffffffffffffffffffffffffffffffff168152602001908152602001600020549050919050565b61121f611bdf565b73ffffffffffffffffffffffffffffffffffffffff1661123d611332565b73ffffffffffffffffffffffffffffffffffffffff1614611293576040517f08c379a000000000000000000000000000000000000000000000000000000000815260040161128a9061419c565b60405180910390fd5b61129d60006127de565b565b600c546112ac60116127d0565b106112ec576040517f08c379a00000000000000000000000000000000000000000000000000000000081526004016112e39061427c565b60405180910390fd5b60005b8281101561132d5761130160116128a4565b600061130d60116127d0565b905061131983826128ba565b508080611325906145fb565b9150506112ef565b505050565b6000600a60009054906101000a900473ffffffffffffffffffffffffffffffffffffffff16905090565b3481600b5461136b9190614413565b11156113ac576040517f08c379a00000000000000000000000000000000000000000000000000000000081526004016113a3906140dc565b60405180910390fd5b600c546113b960116127d0565b106113f9576040517f08c379a00000000000000000000000000000000000000000000000000000000081526004016113f09061427c565b60405180910390fd5b600033905060005b828110156115535761141360116128a4565b600061141f60116127d0565b905061142b83826128ba565b6001601060008573ffffffffffffffffffffffffffffffffffffffff1673ffffffffffffffffffffffffffffffffffffffff168152602001908152602001600020600082825461147b919061438c565b925050819055506000600d541180156114d55750600d54601060008573ffffffffffffffffffffffffffffffffffffffff1673ffffffffffffffffffffffffffffffffffffffff1681526020019081526020016000205410155b1561153f576114e6600e548461129f565b600d54601060008573ffffffffffffffffffffffffffffffffffffffff1673ffffffffffffffffffffffffffffffffffffffff1681526020019081526020016000206000828254611537919061446d565b925050819055505b50808061154b906145fb565b915050611401565b505050565b60606001805461156790614598565b80601f016020809104026020016040519081016040528092919081815260200182805461159390614598565b80156115e05780601f106115b5576101008083540402835291602001916115e0565b820191906000526020600020905b8154815290600101906020018083116115c357829003601f168201915b5050505050905090565b6000806000806115f9856128d8565b925092509250600186828585604051600081526020016040526040516116229493929190613f55565b6020604051602081039080840390855afa158015611644573d6000803e3d6000fd5b50505060206040510351935050505092915050565b600c5481565b611667611bdf565b73ffffffffffffffffffffffffffffffffffffffff16611685611332565b73ffffffffffffffffffffffffffffffffffffffff16146116db576040517f08c379a00000000000000000000000000000000000000000000000000000000081526004016116d29061419c565b60405180910390fd5b80600c8190555050565b6116f76116f0611bdf565b8383612940565b5050565b61170c611706611bdf565b8361248b565b61174b576040517f08c379a00000000000000000000000000000000000000000000000000000000081526004016117429061421c565b60405180910390fd5b61175784848484612aad565b50505050565b600d5481565b606061176e82611be7565b6117ad576040517f08c379a00000000000000000000000000000000000000000000000000000000081526004016117a4906141bc565b60405180910390fd5b60006117b7612b09565b905060008151116117d75760405180602001604052806000815250611802565b806117e184611d0c565b6040516020016117f2929190613e8d565b6040516020818303038152906040525b915050919050565b600e5481565b6060600f805461181f90614598565b80601f016020809104026020016040519081016040528092919081815260200182805461184b90614598565b80156118985780601f1061186d57610100808354040283529160200191611898565b820191906000526020600020905b81548152906001019060200180831161187b57829003601f168201915b5050505050905090565b6000600560008473ffffffffffffffffffffffffffffffffffffffff1673ffffffffffffffffffffffffffffffffffffffff16815260200190815260200160002060008373ffffffffffffffffffffffffffffffffffffffff1673ffffffffffffffffffffffffffffffffffffffff16815260200190815260200160002060009054906101000a900460ff16905092915050565b61193e611bdf565b73ffffffffffffffffffffffffffffffffffffffff1661195c611332565b73ffffffffffffffffffffffffffffffffffffffff16146119b2576040517f08c379a00000000000000000000000000000000000000000000000000000000081526004016119a99061419c565b60405180910390fd5b600073ffffffffffffffffffffffffffffffffffffffff168173ffffffffffffffffffffffffffffffffffffffff161415611a22576040517f08c379a0000000000000000000000000000000000000000000000000000000008152600401611a199061401c565b60405180910390fd5b611a2b816127de565b50565b611a36611bdf565b73ffffffffffffffffffffffffffffffffffffffff16611a54611332565b73ffffffffffffffffffffffffffffffffffffffff1614611aaa576040517f08c379a0000000000000000000000000000000000000000000000000000000008152600401611aa19061419c565b60405180910390fd5b80600b8190555050565b6000601060008373ffffffffffffffffffffffffffffffffffffffff1673ffffffffffffffffffffffffffffffffffffffff168152602001908152602001600020549050919050565b60007f80ac58cd000000000000000000000000000000000000000000000000000000007bffffffffffffffffffffffffffffffffffffffffffffffffffffffff1916827bffffffffffffffffffffffffffffffffffffffffffffffffffffffff19161480611bc857507f5b5e139f000000000000000000000000000000000000000000000000000000007bffffffffffffffffffffffffffffffffffffffffffffffffffffffff1916827bffffffffffffffffffffffffffffffffffffffffffffffffffffffff1916145b80611bd85750611bd782612b20565b5b9050919050565b600033905090565b60008073ffffffffffffffffffffffffffffffffffffffff166002600084815260200190815260200160002060009054906101000a900473ffffffffffffffffffffffffffffffffffffffff1673ffffffffffffffffffffffffffffffffffffffff1614159050919050565b816004600083815260200190815260200160002060006101000a81548173ffffffffffffffffffffffffffffffffffffffff021916908373ffffffffffffffffffffffffffffffffffffffff160217905550808273ffffffffffffffffffffffffffffffffffffffff16611cc683611089565b73ffffffffffffffffffffffffffffffffffffffff167f8c5be1e5ebec7d5bd14f71427d1e84f3dd0314c0f7b2291e5b200ac8c7c3b92560405160405180910390a45050565b60606000821415611d54576040518060400160405280600181526020017f30000000000000000000000000000000000000000000000000000000000000008152509050611eb4565b600082905060005b60008214611d86578080611d6f906145fb565b915050600a82611d7f91906143e2565b9150611d5c565b60008167ffffffffffffffff811115611dc8577f4e487b7100000000000000000000000000000000000000000000000000000000600052604160045260246000fd5b6040519080825280601f01601f191660200182016040528015611dfa5781602001600182028036833780820191505090505b5090505b60008514611ead57600182611e13919061446d565b9150600a85611e229190614644565b6030611e2e919061438c565b60f81b818381518110611e6a577f4e487b7100000000000000000000000000000000000000000000000000000000600052603260045260246000fd5b60200101907effffffffffffffffffffffffffffffffffffffffffffffffffffffffffffff1916908160001a905350600a85611ea691906143e2565b9450611dfe565b8093505050505b919050565b606060006002836002611ecc9190614413565b611ed6919061438c565b67ffffffffffffffff811115611f15577f4e487b7100000000000000000000000000000000000000000000000000000000600052604160045260246000fd5b6040519080825280601f01601f191660200182016040528015611f475781602001600182028036833780820191505090505b5090507f300000000000000000000000000000000000000000000000000000000000000081600081518110611fa5577f4e487b7100000000000000000000000000000000000000000000000000000000600052603260045260246000fd5b60200101907effffffffffffffffffffffffffffffffffffffffffffffffffffffffffffff1916908160001a9053507f78000000000000000000000000000000000000000000000000000000000000008160018151811061202f577f4e487b7100000000000000000000000000000000000000000000000000000000600052603260045260246000fd5b60200101907effffffffffffffffffffffffffffffffffffffffffffffffffffffffffffff1916908160001a9053506000600184600261206f9190614413565b612079919061438c565b90505b6001811115612165577f3031323334353637383961626364656600000000000000000000000000000000600f8616601081106120e1577f4e487b7100000000000000000000000000000000000000000000000000000000600052603260045260246000fd5b1a60f81b82828151811061211e577f4e487b7100000000000000000000000000000000000000000000000000000000600052603260045260246000fd5b60200101907effffffffffffffffffffffffffffffffffffffffffffffffffffffffffffff1916908160001a905350600485901c94508061215e9061456e565b905061207c565b50600084146121a9576040517f08c379a00000000000000000000000000000000000000000000000000000000081526004016121a090613fbc565b60405180910390fd5b8091505092915050565b60606000808314156122015760016040518060400160405280600181526020017f30000000000000000000000000000000000000000000000000000000000000008152509091509150612369565b60008390506000805b6000831461223457818061221d906145fb565b925050600a8361222d91906143e2565b925061220a565b81905060008267ffffffffffffffff811115612279577f4e487b7100000000000000000000000000000000000000000000000000000000600052604160045260246000fd5b6040519080825280601f01601f1916602001820160405280156122ab5781602001600182028036833780820191505090505b5090505b6000871461235e576001836122c4919061446d565b9250600a876122d39190614644565b60306122df919061438c565b60f81b81848151811061231b577f4e487b7100000000000000000000000000000000000000000000000000000000600052603260045260246000fd5b60200101907effffffffffffffffffffffffffffffffffffffffffffffffffffffffffffff1916908160001a905350600a8761235791906143e2565b96506122af565b808295509550505050505b915091565b600061237982611089565b905061238781600084612b8a565b612392600083611c53565b6001600360008373ffffffffffffffffffffffffffffffffffffffff1673ffffffffffffffffffffffffffffffffffffffff16815260200190815260200160002060008282546123e2919061446d565b925050819055506002600083815260200190815260200160002060006101000a81549073ffffffffffffffffffffffffffffffffffffffff021916905581600073ffffffffffffffffffffffffffffffffffffffff168273ffffffffffffffffffffffffffffffffffffffff167fddf252ad1be2c89b69c2b068fc378daa952ba7f163c4a11628f55a4df523b3ef60405160405180910390a461248781600084612c9e565b5050565b600061249682611be7565b6124d5576040517f08c379a00000000000000000000000000000000000000000000000000000000081526004016124cc906140bc565b60405180910390fd5b60006124e083611089565b90508073ffffffffffffffffffffffffffffffffffffffff168473ffffffffffffffffffffffffffffffffffffffff161480612522575061252181856118a2565b5b8061256057508373ffffffffffffffffffffffffffffffffffffffff1661254884610ace565b73ffffffffffffffffffffffffffffffffffffffff16145b91505092915050565b8273ffffffffffffffffffffffffffffffffffffffff1661258982611089565b73ffffffffffffffffffffffffffffffffffffffff16146125df576040517f08c379a00000000000000000000000000000000000000000000000000000000081526004016125d69061403c565b60405180910390fd5b600073ffffffffffffffffffffffffffffffffffffffff168273ffffffffffffffffffffffffffffffffffffffff16141561264f576040517f08c379a00000000000000000000000000000000000000000000000000000000081526004016126469061407c565b60405180910390fd5b61265a838383612b8a565b612665600082611c53565b6001600360008573ffffffffffffffffffffffffffffffffffffffff1673ffffffffffffffffffffffffffffffffffffffff16815260200190815260200160002060008282546126b5919061446d565b925050819055506001600360008473ffffffffffffffffffffffffffffffffffffffff1673ffffffffffffffffffffffffffffffffffffffff168152602001908152602001600020600082825461270c919061438c565b92505081905550816002600083815260200190815260200160002060006101000a81548173ffffffffffffffffffffffffffffffffffffffff021916908373ffffffffffffffffffffffffffffffffffffffff160217905550808273ffffffffffffffffffffffffffffffffffffffff168473ffffffffffffffffffffffffffffffffffffffff167fddf252ad1be2c89b69c2b068fc378daa952ba7f163c4a11628f55a4df523b3ef60405160405180910390a46127cb838383612c9e565b505050565b600081600001549050919050565b6000600a60009054906101000a900473ffffffffffffffffffffffffffffffffffffffff16905081600a60006101000a81548173ffffffffffffffffffffffffffffffffffffffff021916908373ffffffffffffffffffffffffffffffffffffffff1602179055508173ffffffffffffffffffffffffffffffffffffffff168173ffffffffffffffffffffffffffffffffffffffff167f8be0079c531659141344cd1fd0a4f28419497f9722a3daafe3b4186f6b6457e060405160405180910390a35050565b6001816000016000828254019250508190555050565b6128d4828260405180602001604052806000815250612ca3565b5050565b60008060006041845114612921576040517f08c379a00000000000000000000000000000000000000000000000000000000081526004016129189061425c565b60405180910390fd5b6020840151925060408401519150606084015160001a90509193909250565b8173ffffffffffffffffffffffffffffffffffffffff168373ffffffffffffffffffffffffffffffffffffffff1614156129af576040517f08c379a00000000000000000000000000000000000000000000000000000000081526004016129a69061409c565b60405180910390fd5b80600560008573ffffffffffffffffffffffffffffffffffffffff1673ffffffffffffffffffffffffffffffffffffffff16815260200190815260200160002060008473ffffffffffffffffffffffffffffffffffffffff1673ffffffffffffffffffffffffffffffffffffffff16815260200190815260200160002060006101000a81548160ff0219169083151502179055508173ffffffffffffffffffffffffffffffffffffffff168373ffffffffffffffffffffffffffffffffffffffff167f17307eab39ab6107e8899845ad3d59bd9653f200f220920489ca2b5937696c3183604051612aa09190613f3a565b60405180910390a3505050565b612ab8848484612569565b612ac484848484612cfe565b612b03576040517f08c379a0000000000000000000000000000000000000000000000000000000008152600401612afa90613ffc565b60405180910390fd5b50505050565b606060405180602001604052806000815250905090565b60007f01ffc9a7000000000000000000000000000000000000000000000000000000007bffffffffffffffffffffffffffffffffffffffffffffffffffffffff1916827bffffffffffffffffffffffffffffffffffffffffffffffffffffffff1916149050919050565b612b95838383612e95565b600073ffffffffffffffffffffffffffffffffffffffff168373ffffffffffffffffffffffffffffffffffffffff161415612bd857612bd381612e9a565b612c17565b8173ffffffffffffffffffffffffffffffffffffffff168373ffffffffffffffffffffffffffffffffffffffff1614612c1657612c158382612ee3565b5b5b600073ffffffffffffffffffffffffffffffffffffffff168273ffffffffffffffffffffffffffffffffffffffff161415612c5a57612c5581613050565b612c99565b8273ffffffffffffffffffffffffffffffffffffffff168273ffffffffffffffffffffffffffffffffffffffff1614612c9857612c978282613193565b5b5b505050565b505050565b612cad8383613212565b612cba6000848484612cfe565b612cf9576040517f08c379a0000000000000000000000000000000000000000000000000000000008152600401612cf090613ffc565b60405180910390fd5b505050565b6000612d1f8473ffffffffffffffffffffffffffffffffffffffff166133ec565b15612e88578373ffffffffffffffffffffffffffffffffffffffff1663150b7a02612d48611bdf565b8786866040518563ffffffff1660e01b8152600401612d6a9493929190613eee565b602060405180830381600087803b158015612d8457600080fd5b505af1925050508015612db557506040513d601f19601f82011682018060405250810190612db29190613824565b60015b612e38573d8060008114612de5576040519150601f19603f3d011682016040523d82523d6000602084013e612dea565b606091505b50600081511415612e30576040517f08c379a0000000000000000000000000000000000000000000000000000000008152600401612e2790613ffc565b60405180910390fd5b805181602001fd5b63150b7a0260e01b7bffffffffffffffffffffffffffffffffffffffffffffffffffffffff1916817bffffffffffffffffffffffffffffffffffffffffffffffffffffffff191614915050612e8d565b600190505b949350505050565b505050565b6008805490506009600083815260200190815260200160002081905550600881908060018154018082558091505060019003906000526020600020016000909190919091505550565b60006001612ef08461115f565b612efa919061446d565b9050600060076000848152602001908152602001600020549050818114612fdf576000600660008673ffffffffffffffffffffffffffffffffffffffff1673ffffffffffffffffffffffffffffffffffffffff168152602001908152602001600020600084815260200190815260200160002054905080600660008773ffffffffffffffffffffffffffffffffffffffff1673ffffffffffffffffffffffffffffffffffffffff168152602001908152602001600020600084815260200190815260200160002081905550816007600083815260200190815260200160002081905550505b6007600084815260200190815260200160002060009055600660008573ffffffffffffffffffffffffffffffffffffffff1673ffffffffffffffffffffffffffffffffffffffff16815260200190815260200160002060008381526020019081526020016000206000905550505050565b60006001600880549050613064919061446d565b90506000600960008481526020019081526020016000205490506000600883815481106130ba577f4e487b7100000000000000000000000000000000000000000000000000000000600052603260045260246000fd5b906000526020600020015490508060088381548110613102577f4e487b7100000000000000000000000000000000000000000000000000000000600052603260045260246000fd5b906000526020600020018190555081600960008381526020019081526020016000208190555060096000858152602001908152602001600020600090556008805480613177577f4e487b7100000000000000000000000000000000000000000000000000000000600052603160045260246000fd5b6001900381819060005260206000200160009055905550505050565b600061319e8361115f565b905081600660008573ffffffffffffffffffffffffffffffffffffffff1673ffffffffffffffffffffffffffffffffffffffff168152602001908152602001600020600083815260200190815260200160002081905550806007600084815260200190815260200160002081905550505050565b600073ffffffffffffffffffffffffffffffffffffffff168273ffffffffffffffffffffffffffffffffffffffff161415613282576040517f08c379a00000000000000000000000000000000000000000000000000000000081526004016132799061415c565b60405180910390fd5b61328b81611be7565b156132cb576040517f08c379a00000000000000000000000000000000000000000000000000000000081526004016132c29061405c565b60405180910390fd5b6132d760008383612b8a565b6001600360008473ffffffffffffffffffffffffffffffffffffffff1673ffffffffffffffffffffffffffffffffffffffff1681526020019081526020016000206000828254613327919061438c565b92505081905550816002600083815260200190815260200160002060006101000a81548173ffffffffffffffffffffffffffffffffffffffff021916908373ffffffffffffffffffffffffffffffffffffffff160217905550808273ffffffffffffffffffffffffffffffffffffffff16600073ffffffffffffffffffffffffffffffffffffffff167fddf252ad1be2c89b69c2b068fc378daa952ba7f163c4a11628f55a4df523b3ef60405160405180910390a46133e860008383612c9e565b5050565b6000808273ffffffffffffffffffffffffffffffffffffffff163b119050919050565b82805461341b90614598565b90600052602060002090601f01602090048101928261343d5760008555613484565b82601f1061345657805160ff1916838001178555613484565b82800160010185558215613484579182015b82811115613483578251825591602001919060010190613468565b5b5090506134919190613495565b5090565b5b808211156134ae576000816000905550600101613496565b5090565b60006134c56134c0846142dc565b6142b7565b9050828152602081018484840111156134dd57600080fd5b6134e884828561452c565b509392505050565b60006135036134fe8461430d565b6142b7565b90508281526020810184848401111561351b57600080fd5b61352684828561452c565b509392505050565b60008135905061353d81614d2e565b92915050565b60008135905061355281614d45565b92915050565b60008135905061356781614d5c565b92915050565b60008135905061357c81614d73565b92915050565b60008151905061359181614d73565b92915050565b600082601f8301126135a857600080fd5b81356135b88482602086016134b2565b91505092915050565b600082601f8301126135d257600080fd5b81356135e28482602086016134f0565b91505092915050565b6000813590506135fa81614d8a565b92915050565b60006020828403121561361257600080fd5b60006136208482850161352e565b91505092915050565b6000806040838503121561363c57600080fd5b600061364a8582860161352e565b925050602061365b8582860161352e565b9150509250929050565b60008060006060848603121561367a57600080fd5b60006136888682870161352e565b93505060206136998682870161352e565b92505060406136aa868287016135eb565b9150509250925092565b600080600080608085870312156136ca57600080fd5b60006136d88782880161352e565b94505060206136e98782880161352e565b93505060406136fa878288016135eb565b925050606085013567ffffffffffffffff81111561371757600080fd5b61372387828801613597565b91505092959194509250565b6000806040838503121561374257600080fd5b60006137508582860161352e565b925050602061376185828601613543565b9150509250929050565b6000806040838503121561377e57600080fd5b600061378c8582860161352e565b925050602061379d858286016135eb565b9150509250929050565b600080604083850312156137ba57600080fd5b60006137c885828601613558565b925050602083013567ffffffffffffffff8111156137e557600080fd5b6137f185828601613597565b9150509250929050565b60006020828403121561380d57600080fd5b600061381b8482850161356d565b91505092915050565b60006020828403121561383657600080fd5b600061384484828501613582565b91505092915050565b60006020828403121561385f57600080fd5b600082013567ffffffffffffffff81111561387957600080fd5b613885848285016135c1565b91505092915050565b6000806000606084860312156138a357600080fd5b600084013567ffffffffffffffff8111156138bd57600080fd5b6138c9868287016135c1565b935050602084013567ffffffffffffffff8111156138e657600080fd5b6138f286828701613597565b9250506040613903868287016135eb565b9150509250925092565b60006020828403121561391f57600080fd5b600061392d848285016135eb565b91505092915050565b6000806040838503121561394957600080fd5b6000613957858286016135eb565b92505060206139688582860161352e565b9150509250929050565b6000806040838503121561398557600080fd5b6000613993858286016135eb565b925050602083013567ffffffffffffffff8111156139b057600080fd5b6139bc85828601613597565b9150509250929050565b600080604083850312156139d957600080fd5b60006139e7858286016135eb565b92505060206139f8858286016135eb565b9150509250929050565b613a0b816144a1565b82525050565b613a1a816144b3565b82525050565b613a29816144bf565b82525050565b6000613a3a8261433e565b613a448185614354565b9350613a5481856020860161453b565b613a5d81614731565b840191505092915050565b6000613a738261433e565b613a7d8185614365565b9350613a8d81856020860161453b565b80840191505092915050565b6000613aa482614349565b613aae8185614370565b9350613abe81856020860161453b565b613ac781614731565b840191505092915050565b6000613add82614349565b613ae78185614381565b9350613af781856020860161453b565b80840191505092915050565b6000613b10602083614370565b9150613b1b82614742565b602082019050919050565b6000613b33602b83614370565b9150613b3e8261476b565b604082019050919050565b6000613b56603283614370565b9150613b61826147ba565b604082019050919050565b6000613b79602683614370565b9150613b8482614809565b604082019050919050565b6000613b9c602583614370565b9150613ba782614858565b604082019050919050565b6000613bbf601c83614370565b9150613bca826148a7565b602082019050919050565b6000613be2602483614370565b9150613bed826148d0565b604082019050919050565b6000613c05601983614370565b9150613c108261491f565b602082019050919050565b6000613c28602c83614370565b9150613c3382614948565b604082019050919050565b6000613c4b601183614370565b9150613c5682614997565b602082019050919050565b6000613c6e603883614370565b9150613c79826149c0565b604082019050919050565b6000613c91602a83614370565b9150613c9c82614a0f565b604082019050919050565b6000613cb4602983614370565b9150613cbf82614a5e565b604082019050919050565b6000613cd7602083614370565b9150613ce282614aad565b602082019050919050565b6000613cfa602c83614370565b9150613d0582614ad6565b604082019050919050565b6000613d1d602083614370565b9150613d2882614b25565b602082019050919050565b6000613d40601a83614381565b9150613d4b82614b4e565b601a82019050919050565b6000613d63602f83614370565b9150613d6e82614b77565b604082019050919050565b6000613d86601f83614370565b9150613d9182614bc6565b602082019050919050565b6000613da9602183614370565b9150613db482614bef565b604082019050919050565b6000613dcc603183614370565b9150613dd782614c3e565b604082019050919050565b6000613def602c83614370565b9150613dfa82614c8d565b604082019050919050565b6000613e12601883614370565b9150613e1d82614cdc565b602082019050919050565b6000613e35601383614370565b9150613e4082614d05565b602082019050919050565b613e5481614515565b82525050565b613e638161451f565b82525050565b6000613e758285613a68565b9150613e818284613ad2565b91508190509392505050565b6000613e998285613ad2565b9150613ea58284613ad2565b91508190509392505050565b6000613ebc82613d33565b9150613ec88284613ad2565b915081905092915050565b6000602082019050613ee86000830184613a02565b92915050565b6000608082019050613f036000830187613a02565b613f106020830186613a02565b613f1d6040830185613e4b565b8181036060830152613f2f8184613a2f565b905095945050505050565b6000602082019050613f4f6000830184613a11565b92915050565b6000608082019050613f6a6000830187613a20565b613f776020830186613e5a565b613f846040830185613a20565b613f916060830184613a20565b95945050505050565b60006020820190508181036000830152613fb48184613a99565b905092915050565b60006020820190508181036000830152613fd581613b03565b9050919050565b60006020820190508181036000830152613ff581613b26565b9050919050565b6000602082019050818103600083015261401581613b49565b9050919050565b6000602082019050818103600083015261403581613b6c565b9050919050565b6000602082019050818103600083015261405581613b8f565b9050919050565b6000602082019050818103600083015261407581613bb2565b9050919050565b6000602082019050818103600083015261409581613bd5565b9050919050565b600060208201905081810360008301526140b581613bf8565b9050919050565b600060208201905081810360008301526140d581613c1b565b9050919050565b600060208201905081810360008301526140f581613c3e565b9050919050565b6000602082019050818103600083015261411581613c61565b9050919050565b6000602082019050818103600083015261413581613c84565b9050919050565b6000602082019050818103600083015261415581613ca7565b9050919050565b6000602082019050818103600083015261417581613cca565b9050919050565b6000602082019050818103600083015261419581613ced565b9050919050565b600060208201905081810360008301526141b581613d10565b9050919050565b600060208201905081810360008301526141d581613d56565b9050919050565b600060208201905081810360008301526141f581613d79565b9050919050565b6000602082019050818103600083015261421581613d9c565b9050919050565b6000602082019050818103600083015261423581613dbf565b9050919050565b6000602082019050818103600083015261425581613de2565b9050919050565b6000602082019050818103600083015261427581613e05565b9050919050565b6000602082019050818103600083015261429581613e28565b9050919050565b60006020820190506142b16000830184613e4b565b92915050565b60006142c16142d2565b90506142cd82826145ca565b919050565b6000604051905090565b600067ffffffffffffffff8211156142f7576142f6614702565b5b61430082614731565b9050602081019050919050565b600067ffffffffffffffff82111561432857614327614702565b5b61433182614731565b9050602081019050919050565b600081519050919050565b600081519050919050565b600082825260208201905092915050565b600081905092915050565b600082825260208201905092915050565b600081905092915050565b600061439782614515565b91506143a283614515565b9250827fffffffffffffffffffffffffffffffffffffffffffffffffffffffffffffffff038211156143d7576143d6614675565b5b828201905092915050565b60006143ed82614515565b91506143f883614515565b925082614408576144076146a4565b5b828204905092915050565b600061441e82614515565b915061442983614515565b9250817fffffffffffffffffffffffffffffffffffffffffffffffffffffffffffffffff048311821515161561446257614461614675565b5b828202905092915050565b600061447882614515565b915061448383614515565b92508282101561449657614495614675565b5b828203905092915050565b60006144ac826144f5565b9050919050565b60008115159050919050565b6000819050919050565b60007fffffffff0000000000000000000000000000000000000000000000000000000082169050919050565b600073ffffffffffffffffffffffffffffffffffffffff82169050919050565b6000819050919050565b600060ff82169050919050565b82818337600083830152505050565b60005b8381101561455957808201518184015260208101905061453e565b83811115614568576000848401525b50505050565b600061457982614515565b9150600082141561458d5761458c614675565b5b600182039050919050565b600060028204905060018216806145b057607f821691505b602082108114156145c4576145c36146d3565b5b50919050565b6145d382614731565b810181811067ffffffffffffffff821117156145f2576145f1614702565b5b80604052505050565b600061460682614515565b91507fffffffffffffffffffffffffffffffffffffffffffffffffffffffffffffffff82141561463957614638614675565b5b600182019050919050565b600061464f82614515565b915061465a83614515565b92508261466a576146696146a4565b5b828206905092915050565b7f4e487b7100000000000000000000000000000000000000000000000000000000600052601160045260246000fd5b7f4e487b7100000000000000000000000000000000000000000000000000000000600052601260045260246000fd5b7f4e487b7100000000000000000000000000000000000000000000000000000000600052602260045260246000fd5b7f4e487b7100000000000000000000000000000000000000000000000000000000600052604160045260246000fd5b6000601f19601f8301169050919050565b7f537472696e67733a20686578206c656e67746820696e73756666696369656e74600082015250565b7f455243373231456e756d657261626c653a206f776e657220696e646578206f7560008201527f74206f6620626f756e6473000000000000000000000000000000000000000000602082015250565b7f4552433732313a207472616e7366657220746f206e6f6e20455243373231526560008201527f63656976657220696d706c656d656e7465720000000000000000000000000000602082015250565b7f4f776e61626c653a206e6577206f776e657220697320746865207a65726f206160008201527f6464726573730000000000000000000000000000000000000000000000000000602082015250565b7f4552433732313a207472616e736665722066726f6d20696e636f72726563742060008201527f6f776e6572000000000000000000000000000000000000000000000000000000602082015250565b7f4552433732313a20746f6b656e20616c7265616479206d696e74656400000000600082015250565b7f4552433732313a207472616e7366657220746f20746865207a65726f2061646460008201527f7265737300000000000000000000000000000000000000000000000000000000602082015250565b7f4552433732313a20617070726f766520746f2063616c6c657200000000000000600082015250565b7f4552433732313a206f70657261746f7220717565727920666f72206e6f6e657860008201527f697374656e7420746f6b656e0000000000000000000000000000000000000000602082015250565b7f4e6f7420656e6f7567682065746865722e000000000000000000000000000000600082015250565b7f4552433732313a20617070726f76652063616c6c6572206973206e6f74206f7760008201527f6e6572206e6f7220617070726f76656420666f7220616c6c0000000000000000602082015250565b7f4552433732313a2062616c616e636520717565727920666f7220746865207a6560008201527f726f206164647265737300000000000000000000000000000000000000000000602082015250565b7f4552433732313a206f776e657220717565727920666f72206e6f6e657869737460008201527f656e7420746f6b656e0000000000000000000000000000000000000000000000602082015250565b7f4552433732313a206d696e7420746f20746865207a65726f2061646472657373600082015250565b7f4552433732313a20617070726f76656420717565727920666f72206e6f6e657860008201527f697374656e7420746f6b656e0000000000000000000000000000000000000000602082015250565b7f4f776e61626c653a2063616c6c6572206973206e6f7420746865206f776e6572600082015250565b7f19457468657265756d205369676e6564204d6573736167653a0a000000000000600082015250565b7f4552433732314d657461646174613a2055524920717565727920666f72206e6f60008201527f6e6578697374656e7420746f6b656e0000000000000000000000000000000000602082015250565b7f5369676e657220616e64204e4654206f776e6572206e6f74206d617463682e00600082015250565b7f4552433732313a20617070726f76616c20746f2063757272656e74206f776e6560008201527f7200000000000000000000000000000000000000000000000000000000000000602082015250565b7f4552433732313a207472616e736665722063616c6c6572206973206e6f74206f60008201527f776e6572206e6f7220617070726f766564000000000000000000000000000000602082015250565b7f455243373231456e756d657261626c653a20676c6f62616c20696e646578206f60008201527f7574206f6620626f756e64730000000000000000000000000000000000000000602082015250565b7f696e76616c6964207369676e6174757265206c656e6774680000000000000000600082015250565b7f4e6f204e46542063616e206265206d696e742e00000000000000000000000000600082015250565b614d37816144a1565b8114614d4257600080fd5b50565b614d4e816144b3565b8114614d5957600080fd5b50565b614d65816144bf565b8114614d7057600080fd5b50565b614d7c816144c9565b8114614d8757600080fd5b50565b614d9381614515565b8114614d9e57600080fd5b5056fea264697066735822122085d9ffe437f68c31f5a2997bb5c88ce8a00f439e1c463a5d81aae74026d25dc064736f6c63430008010033",
  "linkReferences": {},
  "deployedLinkReferences": {}
}